{
  "contractName": "BondingCurveController",
  "abi": [
    {
      "inputs": [
        {
          "internalType": "address",
          "name": "_vaultAddress",
          "type": "address"
        }
      ],
      "stateMutability": "nonpayable",
      "type": "constructor"
    },
    {
      "inputs": [
        {
          "internalType": "address",
          "name": "poolAddress",
          "type": "address"
        },
        {
          "internalType": "address",
          "name": "member",
          "type": "address"
        }
      ],
      "name": "addAllowedAddress",
      "outputs": [],
      "stateMutability": "nonpayable",
      "type": "function"
    },
    {
      "inputs": [
        {
          "internalType": "address",
          "name": "poolAddress",
          "type": "address"
        }
      ],
      "name": "collectAumManagementFees",
      "outputs": [],
      "stateMutability": "nonpayable",
      "type": "function"
    },
    {
      "inputs": [
        {
          "internalType": "address",
          "name": "",
          "type": "address"
        }
      ],
      "name": "managedPools",
      "outputs": [
        {
          "internalType": "bool",
          "name": "",
          "type": "bool"
        }
      ],
      "stateMutability": "view",
      "type": "function"
    },
    {
      "inputs": [],
      "name": "manager",
      "outputs": [
        {
          "internalType": "address",
          "name": "",
          "type": "address"
        }
      ],
      "stateMutability": "view",
      "type": "function"
    },
    {
      "inputs": [
        {
          "internalType": "address",
          "name": "_poolAddress",
          "type": "address"
        }
      ],
      "name": "registerPool",
      "outputs": [],
      "stateMutability": "nonpayable",
      "type": "function"
    },
    {
      "inputs": [
        {
          "internalType": "address",
          "name": "poolAddress",
          "type": "address"
        },
        {
          "internalType": "address",
          "name": "member",
          "type": "address"
        }
      ],
      "name": "removeAllowedAddress",
      "outputs": [],
      "stateMutability": "nonpayable",
      "type": "function"
    },
    {
      "inputs": [
        {
          "internalType": "address",
          "name": "poolAddress",
          "type": "address"
        },
        {
          "internalType": "contract IERC20[]",
          "name": "tokens",
          "type": "address[]"
        },
        {
          "internalType": "uint256[]",
          "name": "bptPrices",
          "type": "uint256[]"
        },
        {
          "internalType": "uint256[]",
          "name": "lowerBoundPercentages",
          "type": "uint256[]"
        },
        {
          "internalType": "uint256[]",
          "name": "upperBoundPercentages",
          "type": "uint256[]"
        }
      ],
      "name": "setCircuitBreakers",
      "outputs": [],
      "stateMutability": "nonpayable",
      "type": "function"
    },
    {
      "inputs": [
        {
          "internalType": "address",
          "name": "poolAddress",
          "type": "address"
        },
        {
          "internalType": "bool",
          "name": "joinExitEnabled",
          "type": "bool"
        }
      ],
      "name": "setJoinExitEnabled",
      "outputs": [],
      "stateMutability": "nonpayable",
      "type": "function"
    },
    {
      "inputs": [
        {
          "internalType": "address",
          "name": "poolAddress",
          "type": "address"
        },
        {
          "internalType": "uint256",
          "name": "managementAumFeePercentage",
          "type": "uint256"
        }
      ],
      "name": "setManagementAumFeePercentage",
      "outputs": [],
      "stateMutability": "nonpayable",
      "type": "function"
    },
    {
      "inputs": [
        {
          "internalType": "address",
          "name": "poolAddress",
          "type": "address"
        },
        {
          "internalType": "bool",
          "name": "mustAllowlistLPs",
          "type": "bool"
        }
      ],
      "name": "setMustAllowlistLPs",
      "outputs": [],
      "stateMutability": "nonpayable",
      "type": "function"
    },
    {
      "inputs": [
        {
          "internalType": "address",
          "name": "poolAddress",
          "type": "address"
        },
        {
          "internalType": "bool",
          "name": "swapEnabled",
          "type": "bool"
        }
      ],
      "name": "setSwapEnabled",
      "outputs": [],
      "stateMutability": "nonpayable",
      "type": "function"
    },
    {
      "inputs": [
        {
          "internalType": "address",
          "name": "_manager",
          "type": "address"
        }
      ],
      "name": "transferManagement",
      "outputs": [],
      "stateMutability": "nonpayable",
      "type": "function"
    },
    {
      "inputs": [
        {
          "internalType": "address",
          "name": "poolAddress",
          "type": "address"
        },
        {
          "internalType": "uint256",
          "name": "startTime",
          "type": "uint256"
        },
        {
          "internalType": "uint256",
          "name": "endTime",
          "type": "uint256"
        },
        {
          "internalType": "contract IERC20[]",
          "name": "tokens",
          "type": "address[]"
        },
        {
          "internalType": "uint256[]",
          "name": "endWeights",
          "type": "uint256[]"
        }
      ],
      "name": "updateSwapFeeGradually",
      "outputs": [],
      "stateMutability": "nonpayable",
      "type": "function"
    },
    {
      "inputs": [
        {
          "internalType": "address",
          "name": "poolAddress",
          "type": "address"
        },
        {
          "internalType": "uint256",
          "name": "startTime",
          "type": "uint256"
        },
        {
          "internalType": "uint256",
          "name": "endTime",
          "type": "uint256"
        },
        {
          "internalType": "uint256",
          "name": "startSwapFeePercentage",
          "type": "uint256"
        },
        {
          "internalType": "uint256",
          "name": "endSwapFeePercentage",
          "type": "uint256"
        }
      ],
      "name": "updateSwapFeeGradually",
      "outputs": [],
      "stateMutability": "nonpayable",
      "type": "function"
    },
    {
      "inputs": [
        {
          "internalType": "bytes32",
          "name": "_poolId",
          "type": "bytes32"
        }
      ],
      "name": "runCheck",
      "outputs": [
        {
          "internalType": "uint256",
          "name": "",
          "type": "uint256"
        }
      ],
      "stateMutability": "view",
      "type": "function"
    }
  ],
  "bytecode": "0x60a06040523480156200001157600080fd5b5060405162001b7238038062001b7283398181016040528101906200003791906200011e565b80336000806101000a81548173ffffffffffffffffffffffffffffffffffffffff021916908373ffffffffffffffffffffffffffffffffffffffff1602179055508073ffffffffffffffffffffffffffffffffffffffff1660808173ffffffffffffffffffffffffffffffffffffffff1681525050505062000150565b600080fd5b600073ffffffffffffffffffffffffffffffffffffffff82169050919050565b6000620000e682620000b9565b9050919050565b620000f881620000d9565b81146200010457600080fd5b50565b6000815190506200011881620000ed565b92915050565b600060208284031215620001375762000136620000b4565b5b6000620001478482850162000107565b91505092915050565b608051611a066200016c60003960006103270152611a066000f3fe608060405234801561001057600080fd5b50600436106100f55760003560e01c806351d48cea11610097578063abd796bf11610066578063abd796bf14610258578063abd9084614610274578063e4444feb14610290578063e4edf852146102ac576100f5565b806351d48cea146101d4578063556f1eb9146101f05780637b35a88f1461020c578063875e7cd91461023c576100f5565b8063404ac21e116100d3578063404ac21e1461016257806342da1cb11461017e578063458aa92b1461019a578063481c6a75146101b6576100f5565b806320f0baff146100fa57806326ab7fd61461012a5780632abbd3ad14610146575b600080fd5b610114600480360381019061010f9190610dfa565b6102c8565b6040516101219190610e40565b60405180910390f35b610144600480360381019061013f919061113f565b6103e0565b005b610160600480360381019061015b919061122a565b6104b6565b005b61017c6004803603810190610177919061126a565b610583565b005b61019860048036038101906101939190611297565b610656565b005b6101b460048036038101906101af91906112d7565b610735565b005b6101be61080b565b6040516101cb91906113d1565b60405180910390f35b6101ee60048036038101906101e9919061122a565b61082f565b005b61020a6004803603810190610205919061122a565b6108fc565b005b6102266004803603810190610221919061126a565b6109c9565b60405161023391906113fb565b60405180910390f35b61025660048036038101906102519190611416565b6109e9565b005b610272600480360381019061026d9190611491565b610abf565b005b61028e6004803603810190610289919061126a565b610b8c565b005b6102aa60048036038101906102a59190611491565b610c3e565b005b6102c660048036038101906102c1919061126a565b610d0b565b005b60008060009054906101000a900473ffffffffffffffffffffffffffffffffffffffff1673ffffffffffffffffffffffffffffffffffffffff163373ffffffffffffffffffffffffffffffffffffffff161461032357600080fd5b60007f000000000000000000000000000000000000000000000000000000000000000073ffffffffffffffffffffffffffffffffffffffff1663f94d4668846040518263ffffffff1660e01b815260040161037e91906114e0565b600060405180830381865afa15801561039b573d6000803e3d6000fd5b505050506040513d6000823e3d601f19601f820116820180604052508101906103c49190611653565b5050905060006103d382610da6565b9050600192505050919050565b60008054906101000a900473ffffffffffffffffffffffffffffffffffffffff1673ffffffffffffffffffffffffffffffffffffffff163373ffffffffffffffffffffffffffffffffffffffff161461043857600080fd5b60008590508073ffffffffffffffffffffffffffffffffffffffff1663819c70f3868686866040518563ffffffff1660e01b815260040161047c94939291906118aa565b600060405180830381600087803b15801561049657600080fd5b505af11580156104aa573d6000803e3d6000fd5b50505050505050505050565b60008054906101000a900473ffffffffffffffffffffffffffffffffffffffff1673ffffffffffffffffffffffffffffffffffffffff163373ffffffffffffffffffffffffffffffffffffffff161461050e57600080fd5b60008290508073ffffffffffffffffffffffffffffffffffffffff16637b749c45836040518263ffffffff1660e01b815260040161054c91906113fb565b600060405180830381600087803b15801561056657600080fd5b505af115801561057a573d6000803e3d6000fd5b50505050505050565b60008054906101000a900473ffffffffffffffffffffffffffffffffffffffff1673ffffffffffffffffffffffffffffffffffffffff163373ffffffffffffffffffffffffffffffffffffffff16146105db57600080fd5b60008190508073ffffffffffffffffffffffffffffffffffffffff166373656f896040518163ffffffff1660e01b81526004016020604051808303816000875af115801561062d573d6000803e3d6000fd5b505050506040513d601f19601f8201168201806040525081019061065191906118fd565b505050565b60008054906101000a900473ffffffffffffffffffffffffffffffffffffffff1673ffffffffffffffffffffffffffffffffffffffff163373ffffffffffffffffffffffffffffffffffffffff16146106ae57600080fd5b60008290508073ffffffffffffffffffffffffffffffffffffffff16632a9a0323836040518263ffffffff1660e01b81526004016106ec9190610e40565b6020604051808303816000875af115801561070b573d6000803e3d6000fd5b505050506040513d601f19601f8201168201806040525081019061072f91906118fd565b50505050565b60008054906101000a900473ffffffffffffffffffffffffffffffffffffffff1673ffffffffffffffffffffffffffffffffffffffff163373ffffffffffffffffffffffffffffffffffffffff161461078d57600080fd5b60008590508073ffffffffffffffffffffffffffffffffffffffff1663f885a4bb868686866040518563ffffffff1660e01b81526004016107d1949392919061192a565b600060405180830381600087803b1580156107eb57600080fd5b505af11580156107ff573d6000803e3d6000fd5b50505050505050505050565b60008054906101000a900473ffffffffffffffffffffffffffffffffffffffff1681565b60008054906101000a900473ffffffffffffffffffffffffffffffffffffffff1673ffffffffffffffffffffffffffffffffffffffff163373ffffffffffffffffffffffffffffffffffffffff161461088757600080fd5b60008290508073ffffffffffffffffffffffffffffffffffffffff1663e01af92c836040518263ffffffff1660e01b81526004016108c591906113fb565b600060405180830381600087803b1580156108df57600080fd5b505af11580156108f3573d6000803e3d6000fd5b50505050505050565b60008054906101000a900473ffffffffffffffffffffffffffffffffffffffff1673ffffffffffffffffffffffffffffffffffffffff163373ffffffffffffffffffffffffffffffffffffffff161461095457600080fd5b60008290508073ffffffffffffffffffffffffffffffffffffffff1663de3d2b2d836040518263ffffffff1660e01b815260040161099291906113fb565b600060405180830381600087803b1580156109ac57600080fd5b505af11580156109c0573d6000803e3d6000fd5b50505050505050565b60016020528060005260406000206000915054906101000a900460ff1681565b60008054906101000a900473ffffffffffffffffffffffffffffffffffffffff1673ffffffffffffffffffffffffffffffffffffffff163373ffffffffffffffffffffffffffffffffffffffff1614610a4157600080fd5b60008590508073ffffffffffffffffffffffffffffffffffffffff1663b62c1f06868686866040518563ffffffff1660e01b8152600401610a85949392919061198b565b600060405180830381600087803b158015610a9f57600080fd5b505af1158015610ab3573d6000803e3d6000fd5b50505050505050505050565b60008054906101000a900473ffffffffffffffffffffffffffffffffffffffff1673ffffffffffffffffffffffffffffffffffffffff163373ffffffffffffffffffffffffffffffffffffffff1614610b1757600080fd5b60008290508073ffffffffffffffffffffffffffffffffffffffff166381788e2b836040518263ffffffff1660e01b8152600401610b5591906113d1565b600060405180830381600087803b158015610b6f57600080fd5b505af1158015610b83573d6000803e3d6000fd5b50505050505050565b60008054906101000a900473ffffffffffffffffffffffffffffffffffffffff1673ffffffffffffffffffffffffffffffffffffffff163373ffffffffffffffffffffffffffffffffffffffff1614610be457600080fd5b60018060008373ffffffffffffffffffffffffffffffffffffffff1673ffffffffffffffffffffffffffffffffffffffff16815260200190815260200160002060006101000a81548160ff02191690831515021790555050565b60008054906101000a900473ffffffffffffffffffffffffffffffffffffffff1673ffffffffffffffffffffffffffffffffffffffff163373ffffffffffffffffffffffffffffffffffffffff1614610c9657600080fd5b60008290508073ffffffffffffffffffffffffffffffffffffffff16633c9d93b8836040518263ffffffff1660e01b8152600401610cd491906113d1565b600060405180830381600087803b158015610cee57600080fd5b505af1158015610d02573d6000803e3d6000fd5b50505050505050565b60008054906101000a900473ffffffffffffffffffffffffffffffffffffffff1673ffffffffffffffffffffffffffffffffffffffff163373ffffffffffffffffffffffffffffffffffffffff1614610d6357600080fd5b806000806101000a81548173ffffffffffffffffffffffffffffffffffffffff021916908373ffffffffffffffffffffffffffffffffffffffff16021790555050565b6060819050919050565b6000604051905090565b600080fd5b600080fd5b6000819050919050565b610dd781610dc4565b8114610de257600080fd5b50565b600081359050610df481610dce565b92915050565b600060208284031215610e1057610e0f610dba565b5b6000610e1e84828501610de5565b91505092915050565b6000819050919050565b610e3a81610e27565b82525050565b6000602082019050610e556000830184610e31565b92915050565b600073ffffffffffffffffffffffffffffffffffffffff82169050919050565b6000610e8682610e5b565b9050919050565b610e9681610e7b565b8114610ea157600080fd5b50565b600081359050610eb381610e8d565b92915050565b610ec281610e27565b8114610ecd57600080fd5b50565b600081359050610edf81610eb9565b92915050565b600080fd5b6000601f19601f8301169050919050565b7f4e487b7100000000000000000000000000000000000000000000000000000000600052604160045260246000fd5b610f3382610eea565b810181811067ffffffffffffffff82111715610f5257610f51610efb565b5b80604052505050565b6000610f65610db0565b9050610f718282610f2a565b919050565b600067ffffffffffffffff821115610f9157610f90610efb565b5b602082029050602081019050919050565b600080fd5b6000610fb282610e7b565b9050919050565b610fc281610fa7565b8114610fcd57600080fd5b50565b600081359050610fdf81610fb9565b92915050565b6000610ff8610ff384610f76565b610f5b565b9050808382526020820190506020840283018581111561101b5761101a610fa2565b5b835b8181101561104457806110308882610fd0565b84526020840193505060208101905061101d565b5050509392505050565b600082601f83011261106357611062610ee5565b5b8135611073848260208601610fe5565b91505092915050565b600067ffffffffffffffff82111561109757611096610efb565b5b602082029050602081019050919050565b60006110bb6110b68461107c565b610f5b565b905080838252602082019050602084028301858111156110de576110dd610fa2565b5b835b8181101561110757806110f38882610ed0565b8452602084019350506020810190506110e0565b5050509392505050565b600082601f83011261112657611125610ee5565b5b81356111368482602086016110a8565b91505092915050565b600080600080600060a0868803121561115b5761115a610dba565b5b600061116988828901610ea4565b955050602061117a88828901610ed0565b945050604061118b88828901610ed0565b935050606086013567ffffffffffffffff8111156111ac576111ab610dbf565b5b6111b88882890161104e565b925050608086013567ffffffffffffffff8111156111d9576111d8610dbf565b5b6111e588828901611111565b9150509295509295909350565b60008115159050919050565b611207816111f2565b811461121257600080fd5b50565b600081359050611224816111fe565b92915050565b6000806040838503121561124157611240610dba565b5b600061124f85828601610ea4565b925050602061126085828601611215565b9150509250929050565b6000602082840312156112805761127f610dba565b5b600061128e84828501610ea4565b91505092915050565b600080604083850312156112ae576112ad610dba565b5b60006112bc85828601610ea4565b92505060206112cd85828601610ed0565b9150509250929050565b600080600080600060a086880312156112f3576112f2610dba565b5b600061130188828901610ea4565b955050602086013567ffffffffffffffff81111561132257611321610dbf565b5b61132e8882890161104e565b945050604086013567ffffffffffffffff81111561134f5761134e610dbf565b5b61135b88828901611111565b935050606086013567ffffffffffffffff81111561137c5761137b610dbf565b5b61138888828901611111565b925050608086013567ffffffffffffffff8111156113a9576113a8610dbf565b5b6113b588828901611111565b9150509295509295909350565b6113cb81610e7b565b82525050565b60006020820190506113e660008301846113c2565b92915050565b6113f5816111f2565b82525050565b600060208201905061141060008301846113ec565b92915050565b600080600080600060a0868803121561143257611431610dba565b5b600061144088828901610ea4565b955050602061145188828901610ed0565b945050604061146288828901610ed0565b935050606061147388828901610ed0565b925050608061148488828901610ed0565b9150509295509295909350565b600080604083850312156114a8576114a7610dba565b5b60006114b685828601610ea4565b92505060206114c785828601610ea4565b9150509250929050565b6114da81610dc4565b82525050565b60006020820190506114f560008301846114d1565b92915050565b60008151905061150a81610fb9565b92915050565b600061152361151e84610f76565b610f5b565b9050808382526020820190506020840283018581111561154657611545610fa2565b5b835b8181101561156f578061155b88826114fb565b845260208401935050602081019050611548565b5050509392505050565b600082601f83011261158e5761158d610ee5565b5b815161159e848260208601611510565b91505092915050565b6000815190506115b681610eb9565b92915050565b60006115cf6115ca8461107c565b610f5b565b905080838252602082019050602084028301858111156115f2576115f1610fa2565b5b835b8181101561161b578061160788826115a7565b8452602084019350506020810190506115f4565b5050509392505050565b600082601f83011261163a57611639610ee5565b5b815161164a8482602086016115bc565b91505092915050565b60008060006060848603121561166c5761166b610dba565b5b600084015167ffffffffffffffff81111561168a57611689610dbf565b5b61169686828701611579565b935050602084015167ffffffffffffffff8111156116b7576116b6610dbf565b5b6116c386828701611625565b92505060406116d4868287016115a7565b9150509250925092565b600081519050919050565b600082825260208201905092915050565b6000819050602082019050919050565b6000819050919050565b600061172f61172a61172584610e5b565b61170a565b610e5b565b9050919050565b600061174182611714565b9050919050565b600061175382611736565b9050919050565b61176381611748565b82525050565b6000611775838361175a565b60208301905092915050565b6000602082019050919050565b6000611799826116de565b6117a381856116e9565b93506117ae836116fa565b8060005b838110156117df5781516117c68882611769565b97506117d183611781565b9250506001810190506117b2565b5085935050505092915050565b600081519050919050565b600082825260208201905092915050565b6000819050602082019050919050565b61182181610e27565b82525050565b60006118338383611818565b60208301905092915050565b6000602082019050919050565b6000611857826117ec565b61186181856117f7565b935061186c83611808565b8060005b8381101561189d5781516118848882611827565b975061188f8361183f565b925050600181019050611870565b5085935050505092915050565b60006080820190506118bf6000830187610e31565b6118cc6020830186610e31565b81810360408301526118de818561178e565b905081810360608301526118f2818461184c565b905095945050505050565b60006020828403121561191357611912610dba565b5b6000611921848285016115a7565b91505092915050565b60006080820190508181036000830152611944818761178e565b90508181036020830152611958818661184c565b9050818103604083015261196c818561184c565b90508181036060830152611980818461184c565b905095945050505050565b60006080820190506119a06000830187610e31565b6119ad6020830186610e31565b6119ba6040830185610e31565b6119c76060830184610e31565b9594505050505056fea26469706673582212209b875dfff6901264a4aebc64cecfc58b7ee5d047893675f3ba8be4007527ca1564736f6c63430008110033",
  "immutableReferences": {
    "1266": [
      {
        "length": 32,
        "start": 807
      }
    ]
  },
  "source": "// SPDX-License-Identifier: MIT\n\npragma solidity ^0.8.17;\n\npragma experimental ABIEncoderV2;\n\nimport \"./base/BaseController.sol\";\n\ncontract BondingCurveController is BaseController {\n\n    constructor(address _vaultAddress) BaseController(_vaultAddress) {}\n\n    // As liquidity is added/removed, pool tokens are minted/burned and a price calculated for the pool tokens\n    // according to the bonding curve formula. \n    function runCheck(bytes32 _poolId) public view restricted returns(uint)\n    {\n        // Get Pool tokens\n        // (tokens, balances, lastChangeBlock) = vault.getPoolTokens(poolId);\n        (IERC20[] memory tokens, , ) = vault.getPoolTokens(_poolId);\n        IAsset[] memory assets = _convertERC20sToAssets(tokens);\n\n        // Returns a collection of tokens and their amounts\n        // tokens:  [0xba100000625a3754423978a60c9317c58a424e3D,\n        //              0xC02aaA39b223FE8D0A0e5C4F27eAD9083C756Cc2]\n        // \n        // balances:  [5720903090084350251216632,\n        //              7939247003721636150710]\n\n        // Calculate the weighting here\n        // https://docs.balancer.fi/reference/math/weighted-math.html#overview\n\n        // Check if outside of bounds and if so, transfer tokens\n\n        // const uint supply = bpt.totalSupply();\n\n        // pool.getOwner();\n        // pool.getPausedState();\n\n        return 1;\n    }\n}\n",
  "sourcePath": "/home/eagle/Downloads/Controller/contracts/BondingCurveController.sol",
  "compiler": {
    "name": "solc",
    "version": "0.8.17+commit.8df45f5f.Emscripten.clang"
  },
  "schemaVersion": "3.4.11",
  "updatedAt": "2023-02-24T14:17:02.540Z",
  "devdoc": {
    "kind": "dev",
    "methods": {},
    "version": 1
  },
  "userdoc": {
    "kind": "user",
    "methods": {},
    "version": 1
  }
}