{
  "contractName": "ReserveRatioController",
  "abi": [
    {
      "inputs": [
        {
          "internalType": "uint256",
          "name": "_defaultMinRatio",
          "type": "uint256"
        },
        {
          "internalType": "address",
          "name": "_vaultAddress",
          "type": "address"
        }
      ],
      "stateMutability": "nonpayable",
      "type": "constructor"
    },
    {
      "inputs": [
        {
          "internalType": "address",
          "name": "poolAddress",
          "type": "address"
        },
        {
          "internalType": "address",
          "name": "member",
          "type": "address"
        }
      ],
      "name": "addAllowedAddress",
      "outputs": [],
      "stateMutability": "nonpayable",
      "type": "function"
    },
    {
      "inputs": [
        {
          "internalType": "address",
          "name": "poolAddress",
          "type": "address"
        }
      ],
      "name": "collectAumManagementFees",
      "outputs": [],
      "stateMutability": "nonpayable",
      "type": "function"
    },
    {
      "inputs": [
        {
          "internalType": "address",
          "name": "",
          "type": "address"
        }
      ],
      "name": "managedPools",
      "outputs": [
        {
          "internalType": "bool",
          "name": "",
          "type": "bool"
        }
      ],
      "stateMutability": "view",
      "type": "function"
    },
    {
      "inputs": [],
      "name": "manager",
      "outputs": [
        {
          "internalType": "address",
          "name": "",
          "type": "address"
        }
      ],
      "stateMutability": "view",
      "type": "function"
    },
    {
      "inputs": [
        {
          "internalType": "address",
          "name": "_poolAddress",
          "type": "address"
        }
      ],
      "name": "registerPool",
      "outputs": [],
      "stateMutability": "nonpayable",
      "type": "function"
    },
    {
      "inputs": [
        {
          "internalType": "address",
          "name": "poolAddress",
          "type": "address"
        },
        {
          "internalType": "address",
          "name": "member",
          "type": "address"
        }
      ],
      "name": "removeAllowedAddress",
      "outputs": [],
      "stateMutability": "nonpayable",
      "type": "function"
    },
    {
      "inputs": [
        {
          "internalType": "address",
          "name": "",
          "type": "address"
        }
      ],
      "name": "reserveRatio",
      "outputs": [
        {
          "internalType": "uint256",
          "name": "",
          "type": "uint256"
        }
      ],
      "stateMutability": "view",
      "type": "function"
    },
    {
      "inputs": [
        {
          "internalType": "address",
          "name": "poolAddress",
          "type": "address"
        },
        {
          "internalType": "contract IERC20[]",
          "name": "tokens",
          "type": "address[]"
        },
        {
          "internalType": "uint256[]",
          "name": "bptPrices",
          "type": "uint256[]"
        },
        {
          "internalType": "uint256[]",
          "name": "lowerBoundPercentages",
          "type": "uint256[]"
        },
        {
          "internalType": "uint256[]",
          "name": "upperBoundPercentages",
          "type": "uint256[]"
        }
      ],
      "name": "setCircuitBreakers",
      "outputs": [],
      "stateMutability": "nonpayable",
      "type": "function"
    },
    {
      "inputs": [
        {
          "internalType": "address",
          "name": "poolAddress",
          "type": "address"
        },
        {
          "internalType": "bool",
          "name": "joinExitEnabled",
          "type": "bool"
        }
      ],
      "name": "setJoinExitEnabled",
      "outputs": [],
      "stateMutability": "nonpayable",
      "type": "function"
    },
    {
      "inputs": [
        {
          "internalType": "address",
          "name": "poolAddress",
          "type": "address"
        },
        {
          "internalType": "uint256",
          "name": "managementAumFeePercentage",
          "type": "uint256"
        }
      ],
      "name": "setManagementAumFeePercentage",
      "outputs": [],
      "stateMutability": "nonpayable",
      "type": "function"
    },
    {
      "inputs": [
        {
          "internalType": "address",
          "name": "poolAddress",
          "type": "address"
        },
        {
          "internalType": "bool",
          "name": "mustAllowlistLPs",
          "type": "bool"
        }
      ],
      "name": "setMustAllowlistLPs",
      "outputs": [],
      "stateMutability": "nonpayable",
      "type": "function"
    },
    {
      "inputs": [
        {
          "internalType": "address",
          "name": "poolAddress",
          "type": "address"
        },
        {
          "internalType": "bool",
          "name": "swapEnabled",
          "type": "bool"
        }
      ],
      "name": "setSwapEnabled",
      "outputs": [],
      "stateMutability": "nonpayable",
      "type": "function"
    },
    {
      "inputs": [
        {
          "internalType": "address",
          "name": "_manager",
          "type": "address"
        }
      ],
      "name": "transferManagement",
      "outputs": [],
      "stateMutability": "nonpayable",
      "type": "function"
    },
    {
      "inputs": [
        {
          "internalType": "address",
          "name": "poolAddress",
          "type": "address"
        },
        {
          "internalType": "uint256",
          "name": "startTime",
          "type": "uint256"
        },
        {
          "internalType": "uint256",
          "name": "endTime",
          "type": "uint256"
        },
        {
          "internalType": "contract IERC20[]",
          "name": "tokens",
          "type": "address[]"
        },
        {
          "internalType": "uint256[]",
          "name": "endWeights",
          "type": "uint256[]"
        }
      ],
      "name": "updateSwapFeeGradually",
      "outputs": [],
      "stateMutability": "nonpayable",
      "type": "function"
    },
    {
      "inputs": [
        {
          "internalType": "address",
          "name": "poolAddress",
          "type": "address"
        },
        {
          "internalType": "uint256",
          "name": "startTime",
          "type": "uint256"
        },
        {
          "internalType": "uint256",
          "name": "endTime",
          "type": "uint256"
        },
        {
          "internalType": "uint256",
          "name": "startSwapFeePercentage",
          "type": "uint256"
        },
        {
          "internalType": "uint256",
          "name": "endSwapFeePercentage",
          "type": "uint256"
        }
      ],
      "name": "updateSwapFeeGradually",
      "outputs": [],
      "stateMutability": "nonpayable",
      "type": "function"
    },
    {
      "inputs": [
        {
          "internalType": "bytes32",
          "name": "_poolId",
          "type": "bytes32"
        }
      ],
      "name": "runCheck",
      "outputs": [
        {
          "internalType": "uint256",
          "name": "",
          "type": "uint256"
        }
      ],
      "stateMutability": "view",
      "type": "function"
    },
    {
      "inputs": [
        {
          "internalType": "address",
          "name": "_poolAddress",
          "type": "address"
        },
        {
          "internalType": "uint256",
          "name": "_ratio",
          "type": "uint256"
        }
      ],
      "name": "setReserveRatio",
      "outputs": [],
      "stateMutability": "nonpayable",
      "type": "function"
    },
    {
      "inputs": [
        {
          "internalType": "address",
          "name": "_poolAddress",
          "type": "address"
        }
      ],
      "name": "getManagedPoolRatio",
      "outputs": [
        {
          "internalType": "uint256",
          "name": "",
          "type": "uint256"
        }
      ],
      "stateMutability": "view",
      "type": "function"
    }
  ],
  "bytecode": "0x60a06040523480156200001157600080fd5b5060405162001aaf38038062001aaf833981810160405281019062000037919062000161565b80336000806101000a81548173ffffffffffffffffffffffffffffffffffffffff021916908373ffffffffffffffffffffffffffffffffffffffff1602179055508073ffffffffffffffffffffffffffffffffffffffff1660808173ffffffffffffffffffffffffffffffffffffffff168152505050816002819055505050620001a8565b600080fd5b6000819050919050565b620000d681620000c1565b8114620000e257600080fd5b50565b600081519050620000f681620000cb565b92915050565b600073ffffffffffffffffffffffffffffffffffffffff82169050919050565b60006200012982620000fc565b9050919050565b6200013b816200011c565b81146200014757600080fd5b50565b6000815190506200015b8162000130565b92915050565b600080604083850312156200017b576200017a620000bc565b5b60006200018b85828601620000e5565b92505060206200019e858286016200014a565b9150509250929050565b6080516118ee620001c1600039600050506118ee6000f3fe608060405234801561001057600080fd5b50600436106101165760003560e01c806351d48cea116100a2578063abd796bf11610071578063abd796bf146102d9578063abd90846146102f5578063e4444feb14610311578063e4edf8521461032d578063eb5c53531461034957610116565b806351d48cea14610255578063556f1eb9146102715780637b35a88f1461028d578063875e7cd9146102bd57610116565b806330b0b72b116100e957806330b0b72b146101b3578063404ac21e146101e357806342da1cb1146101ff578063458aa92b1461021b578063481c6a751461023757610116565b806320f0baff1461011b578063242345321461014b57806326ab7fd61461017b5780632abbd3ad14610197575b600080fd5b61013560048036038101906101309190610eda565b610365565b6040516101429190610f20565b60405180910390f35b61016560048036038101906101609190610f99565b6103c9565b6040516101729190610f20565b60405180910390f35b6101956004803603810190610190919061124c565b6103e1565b005b6101b160048036038101906101ac9190611337565b6104b7565b005b6101cd60048036038101906101c89190610f99565b610584565b6040516101da9190610f20565b60405180910390f35b6101fd60048036038101906101f89190610f99565b6105cd565b005b61021960048036038101906102149190611377565b6106a0565b005b610235600480360381019061023091906113b7565b61077f565b005b61023f610855565b60405161024c91906114b1565b60405180910390f35b61026f600480360381019061026a9190611337565b610879565b005b61028b60048036038101906102869190611337565b610946565b005b6102a760048036038101906102a29190610f99565b610a13565b6040516102b491906114db565b60405180910390f35b6102d760048036038101906102d291906114f6565b610a33565b005b6102f360048036038101906102ee9190611571565b610b09565b005b61030f600480360381019061030a9190610f99565b610bd6565b005b61032b60048036038101906103269190611571565b610c88565b005b61034760048036038101906103429190610f99565b610d55565b005b610363600480360381019061035e9190611377565b610df0565b005b60008060009054906101000a900473ffffffffffffffffffffffffffffffffffffffff1673ffffffffffffffffffffffffffffffffffffffff163373ffffffffffffffffffffffffffffffffffffffff16146103c057600080fd5b60019050919050565b60036020528060005260406000206000915090505481565b60008054906101000a900473ffffffffffffffffffffffffffffffffffffffff1673ffffffffffffffffffffffffffffffffffffffff163373ffffffffffffffffffffffffffffffffffffffff161461043957600080fd5b60008590508073ffffffffffffffffffffffffffffffffffffffff1663819c70f3868686866040518563ffffffff1660e01b815260040161047d949392919061177d565b600060405180830381600087803b15801561049757600080fd5b505af11580156104ab573d6000803e3d6000fd5b50505050505050505050565b60008054906101000a900473ffffffffffffffffffffffffffffffffffffffff1673ffffffffffffffffffffffffffffffffffffffff163373ffffffffffffffffffffffffffffffffffffffff161461050f57600080fd5b60008290508073ffffffffffffffffffffffffffffffffffffffff16637b749c45836040518263ffffffff1660e01b815260040161054d91906114db565b600060405180830381600087803b15801561056757600080fd5b505af115801561057b573d6000803e3d6000fd5b50505050505050565b6000600360008373ffffffffffffffffffffffffffffffffffffffff1673ffffffffffffffffffffffffffffffffffffffff168152602001908152602001600020549050919050565b60008054906101000a900473ffffffffffffffffffffffffffffffffffffffff1673ffffffffffffffffffffffffffffffffffffffff163373ffffffffffffffffffffffffffffffffffffffff161461062557600080fd5b60008190508073ffffffffffffffffffffffffffffffffffffffff166373656f896040518163ffffffff1660e01b81526004016020604051808303816000875af1158015610677573d6000803e3d6000fd5b505050506040513d601f19601f8201168201806040525081019061069b91906117e5565b505050565b60008054906101000a900473ffffffffffffffffffffffffffffffffffffffff1673ffffffffffffffffffffffffffffffffffffffff163373ffffffffffffffffffffffffffffffffffffffff16146106f857600080fd5b60008290508073ffffffffffffffffffffffffffffffffffffffff16632a9a0323836040518263ffffffff1660e01b81526004016107369190610f20565b6020604051808303816000875af1158015610755573d6000803e3d6000fd5b505050506040513d601f19601f8201168201806040525081019061077991906117e5565b50505050565b60008054906101000a900473ffffffffffffffffffffffffffffffffffffffff1673ffffffffffffffffffffffffffffffffffffffff163373ffffffffffffffffffffffffffffffffffffffff16146107d757600080fd5b60008590508073ffffffffffffffffffffffffffffffffffffffff1663f885a4bb868686866040518563ffffffff1660e01b815260040161081b9493929190611812565b600060405180830381600087803b15801561083557600080fd5b505af1158015610849573d6000803e3d6000fd5b50505050505050505050565b60008054906101000a900473ffffffffffffffffffffffffffffffffffffffff1681565b60008054906101000a900473ffffffffffffffffffffffffffffffffffffffff1673ffffffffffffffffffffffffffffffffffffffff163373ffffffffffffffffffffffffffffffffffffffff16146108d157600080fd5b60008290508073ffffffffffffffffffffffffffffffffffffffff1663e01af92c836040518263ffffffff1660e01b815260040161090f91906114db565b600060405180830381600087803b15801561092957600080fd5b505af115801561093d573d6000803e3d6000fd5b50505050505050565b60008054906101000a900473ffffffffffffffffffffffffffffffffffffffff1673ffffffffffffffffffffffffffffffffffffffff163373ffffffffffffffffffffffffffffffffffffffff161461099e57600080fd5b60008290508073ffffffffffffffffffffffffffffffffffffffff1663de3d2b2d836040518263ffffffff1660e01b81526004016109dc91906114db565b600060405180830381600087803b1580156109f657600080fd5b505af1158015610a0a573d6000803e3d6000fd5b50505050505050565b60016020528060005260406000206000915054906101000a900460ff1681565b60008054906101000a900473ffffffffffffffffffffffffffffffffffffffff1673ffffffffffffffffffffffffffffffffffffffff163373ffffffffffffffffffffffffffffffffffffffff1614610a8b57600080fd5b60008590508073ffffffffffffffffffffffffffffffffffffffff1663b62c1f06868686866040518563ffffffff1660e01b8152600401610acf9493929190611873565b600060405180830381600087803b158015610ae957600080fd5b505af1158015610afd573d6000803e3d6000fd5b50505050505050505050565b60008054906101000a900473ffffffffffffffffffffffffffffffffffffffff1673ffffffffffffffffffffffffffffffffffffffff163373ffffffffffffffffffffffffffffffffffffffff1614610b6157600080fd5b60008290508073ffffffffffffffffffffffffffffffffffffffff166381788e2b836040518263ffffffff1660e01b8152600401610b9f91906114b1565b600060405180830381600087803b158015610bb957600080fd5b505af1158015610bcd573d6000803e3d6000fd5b50505050505050565b60008054906101000a900473ffffffffffffffffffffffffffffffffffffffff1673ffffffffffffffffffffffffffffffffffffffff163373ffffffffffffffffffffffffffffffffffffffff1614610c2e57600080fd5b60018060008373ffffffffffffffffffffffffffffffffffffffff1673ffffffffffffffffffffffffffffffffffffffff16815260200190815260200160002060006101000a81548160ff02191690831515021790555050565b60008054906101000a900473ffffffffffffffffffffffffffffffffffffffff1673ffffffffffffffffffffffffffffffffffffffff163373ffffffffffffffffffffffffffffffffffffffff1614610ce057600080fd5b60008290508073ffffffffffffffffffffffffffffffffffffffff16633c9d93b8836040518263ffffffff1660e01b8152600401610d1e91906114b1565b600060405180830381600087803b158015610d3857600080fd5b505af1158015610d4c573d6000803e3d6000fd5b50505050505050565b60008054906101000a900473ffffffffffffffffffffffffffffffffffffffff1673ffffffffffffffffffffffffffffffffffffffff163373ffffffffffffffffffffffffffffffffffffffff1614610dad57600080fd5b806000806101000a81548173ffffffffffffffffffffffffffffffffffffffff021916908373ffffffffffffffffffffffffffffffffffffffff16021790555050565b60008054906101000a900473ffffffffffffffffffffffffffffffffffffffff1673ffffffffffffffffffffffffffffffffffffffff163373ffffffffffffffffffffffffffffffffffffffff1614610e4857600080fd5b80600360008473ffffffffffffffffffffffffffffffffffffffff1673ffffffffffffffffffffffffffffffffffffffff168152602001908152602001600020819055505050565b6000604051905090565b600080fd5b600080fd5b6000819050919050565b610eb781610ea4565b8114610ec257600080fd5b50565b600081359050610ed481610eae565b92915050565b600060208284031215610ef057610eef610e9a565b5b6000610efe84828501610ec5565b91505092915050565b6000819050919050565b610f1a81610f07565b82525050565b6000602082019050610f356000830184610f11565b92915050565b600073ffffffffffffffffffffffffffffffffffffffff82169050919050565b6000610f6682610f3b565b9050919050565b610f7681610f5b565b8114610f8157600080fd5b50565b600081359050610f9381610f6d565b92915050565b600060208284031215610faf57610fae610e9a565b5b6000610fbd84828501610f84565b91505092915050565b610fcf81610f07565b8114610fda57600080fd5b50565b600081359050610fec81610fc6565b92915050565b600080fd5b6000601f19601f8301169050919050565b7f4e487b7100000000000000000000000000000000000000000000000000000000600052604160045260246000fd5b61104082610ff7565b810181811067ffffffffffffffff8211171561105f5761105e611008565b5b80604052505050565b6000611072610e90565b905061107e8282611037565b919050565b600067ffffffffffffffff82111561109e5761109d611008565b5b602082029050602081019050919050565b600080fd5b60006110bf82610f5b565b9050919050565b6110cf816110b4565b81146110da57600080fd5b50565b6000813590506110ec816110c6565b92915050565b600061110561110084611083565b611068565b90508083825260208201905060208402830185811115611128576111276110af565b5b835b81811015611151578061113d88826110dd565b84526020840193505060208101905061112a565b5050509392505050565b600082601f8301126111705761116f610ff2565b5b81356111808482602086016110f2565b91505092915050565b600067ffffffffffffffff8211156111a4576111a3611008565b5b602082029050602081019050919050565b60006111c86111c384611189565b611068565b905080838252602082019050602084028301858111156111eb576111ea6110af565b5b835b8181101561121457806112008882610fdd565b8452602084019350506020810190506111ed565b5050509392505050565b600082601f83011261123357611232610ff2565b5b81356112438482602086016111b5565b91505092915050565b600080600080600060a0868803121561126857611267610e9a565b5b600061127688828901610f84565b955050602061128788828901610fdd565b945050604061129888828901610fdd565b935050606086013567ffffffffffffffff8111156112b9576112b8610e9f565b5b6112c58882890161115b565b925050608086013567ffffffffffffffff8111156112e6576112e5610e9f565b5b6112f28882890161121e565b9150509295509295909350565b60008115159050919050565b611314816112ff565b811461131f57600080fd5b50565b6000813590506113318161130b565b92915050565b6000806040838503121561134e5761134d610e9a565b5b600061135c85828601610f84565b925050602061136d85828601611322565b9150509250929050565b6000806040838503121561138e5761138d610e9a565b5b600061139c85828601610f84565b92505060206113ad85828601610fdd565b9150509250929050565b600080600080600060a086880312156113d3576113d2610e9a565b5b60006113e188828901610f84565b955050602086013567ffffffffffffffff81111561140257611401610e9f565b5b61140e8882890161115b565b945050604086013567ffffffffffffffff81111561142f5761142e610e9f565b5b61143b8882890161121e565b935050606086013567ffffffffffffffff81111561145c5761145b610e9f565b5b6114688882890161121e565b925050608086013567ffffffffffffffff81111561148957611488610e9f565b5b6114958882890161121e565b9150509295509295909350565b6114ab81610f5b565b82525050565b60006020820190506114c660008301846114a2565b92915050565b6114d5816112ff565b82525050565b60006020820190506114f060008301846114cc565b92915050565b600080600080600060a0868803121561151257611511610e9a565b5b600061152088828901610f84565b955050602061153188828901610fdd565b945050604061154288828901610fdd565b935050606061155388828901610fdd565b925050608061156488828901610fdd565b9150509295509295909350565b6000806040838503121561158857611587610e9a565b5b600061159685828601610f84565b92505060206115a785828601610f84565b9150509250929050565b600081519050919050565b600082825260208201905092915050565b6000819050602082019050919050565b6000819050919050565b60006116026115fd6115f884610f3b565b6115dd565b610f3b565b9050919050565b6000611614826115e7565b9050919050565b600061162682611609565b9050919050565b6116368161161b565b82525050565b6000611648838361162d565b60208301905092915050565b6000602082019050919050565b600061166c826115b1565b61167681856115bc565b9350611681836115cd565b8060005b838110156116b2578151611699888261163c565b97506116a483611654565b925050600181019050611685565b5085935050505092915050565b600081519050919050565b600082825260208201905092915050565b6000819050602082019050919050565b6116f481610f07565b82525050565b600061170683836116eb565b60208301905092915050565b6000602082019050919050565b600061172a826116bf565b61173481856116ca565b935061173f836116db565b8060005b8381101561177057815161175788826116fa565b975061176283611712565b925050600181019050611743565b5085935050505092915050565b60006080820190506117926000830187610f11565b61179f6020830186610f11565b81810360408301526117b18185611661565b905081810360608301526117c5818461171f565b905095945050505050565b6000815190506117df81610fc6565b92915050565b6000602082840312156117fb576117fa610e9a565b5b6000611809848285016117d0565b91505092915050565b6000608082019050818103600083015261182c8187611661565b90508181036020830152611840818661171f565b90508181036040830152611854818561171f565b90508181036060830152611868818461171f565b905095945050505050565b60006080820190506118886000830187610f11565b6118956020830186610f11565b6118a26040830185610f11565b6118af6060830184610f11565b9594505050505056fea2646970667358221220719a533ad735cd302a1f08b0e24c6945b9d7e53ffdd43bcfb1c4061fd608024a64736f6c63430008110033",
  "immutableReferences": {},
  "source": "// SPDX-License-Identifier: MIT\n\npragma solidity ^0.8.17;\n\nimport \"./base/BaseController.sol\";\n\ncontract ReserveRatioController is BaseController {\n\n    // Minimum reserve ratio\n    uint defaultMinRatio;\n    \n    constructor(uint _defaultMinRatio, address _vaultAddress) BaseController(_vaultAddress)\n    {\n        defaultMinRatio = _defaultMinRatio;\n    }\n\n    // Managed Pools\n    mapping(address => uint) public reserveRatio; // MP Address and its Reserve Ratio\n\n\n    // Checks if the ratio is breached and transfers as necessary\n    function runCheck(bytes32 _poolId) public view restricted returns(uint)\n    {\n        // Retrieve balance for pool\n        // Get bpt balance from vault\n        // Calculate reserve requirement as deposits * rr\n        // If this is higher than reserve, transfer difference\n        return 1;\n    }\n\n    function setReserveRatio(address _poolAddress, uint _ratio) public restricted {\n        reserveRatio[_poolAddress] = _ratio;\n    }\n\n    function getManagedPoolRatio(address _poolAddress) public view returns (uint) {\n        return reserveRatio[_poolAddress];\n    }\n}\n",
  "sourcePath": "/home/eagle/Downloads/Controller/contracts/ReserveRatioController.sol",
  "compiler": {
    "name": "solc",
    "version": "0.8.17+commit.8df45f5f.Emscripten.clang"
  },
  "schemaVersion": "3.4.11",
  "updatedAt": "2023-02-24T14:12:35.311Z",
  "devdoc": {
    "kind": "dev",
    "methods": {},
    "version": 1
  },
  "userdoc": {
    "kind": "user",
    "methods": {},
    "version": 1
  }
}